:1000000022C1000050C100004EC100004CC10000E0
:100010004AC1000048C1000046C1000044C10000C0
:1000200042C1000040C100003EC100003CC10000D0
:100030003AC1000038C1000036C1000034C10000E0
:1000400032C1000030C100002EC100002CC10000F0
:100050002AC1000028C1000026C1000032C60000ED
:1000600022C10000F8C50000CDC500001CC1000081
:100070001AC1000018C1000016C1000014C1000020
:1000800012C1000010C100000EC100000CC1000030
:1000900083C5000058C5000006C1000004C100006F
:1000A00002C1000000C10000FEC00000FCC0000052
:1000B000FAC00000F8C00000F6C00000F4C0000064
:1000C000F2C00000F0C00000EEC00000ECC0000074
:1000D000EAC00000E8C00000E6C00000E4C0000084
:1000E000E2C00000CA02CD02BC02C002C402040386
:1000F000D102D502DB02DF02E302E902ED02F102E6
:100100000403F702FB02FF026108090909097C08E0
:1001100009099D080909CD080909090909090909F9
:100120000909090909090909D80709096908090913
:100130000909B7081C0809090909840800002100F9
:10014000240027002A002D003000330001010000A8
:10015000040107010A0100002200250028002B00ED
:100160002E003100340002010000050108010B01DE
:1001700005050505070508080808020202020A0A23
:100180000808040404040101010101010101030341
:10019000030303030303040707070C0C0C0C0C0CEC
:1001A0000C0C0202020206060606060606060B0BE9
:1001B0000B0B0B0B0B0B010210202008081020402A
:1001C000102040800201020108040201010204081B
:1001D00010204080804020100804020180040201A9
:1001E00080402010080402010804020101020408F2
:1001F00010204080010204081020408000000A0BFB
:1002000002090C0D0E0807030401000000000000A5
:1002100000000000000000000000000000000000DE
:10022000000000000000000012111000000000009B
:1002300000000000000000000000000000000000BE
:100240000000AB060B0911241FBECFEFD1E2DEBFC9
:10025000CDBF00E00CBF24E0A8E1B3E001C01D92D7
:10026000AF36B207E1F713E0A0E0B2E0E8E0FBE16F
:1002700000E00BBF02C007900D92A831B107D9F77B
:1002800011E0C2E2D1E000E006C021970109802F11
:10029000FE010E944D0BC132D10780E00807A9F78B
:1002A000B6D50C94730DACCECF92DF92EF92FF9245
:1002B0000F931F93CF93DF936C017A018B01C0E002
:1002C000D0E0CE15DF0581F0D8016D918D01D6010A
:1002D000ED91FC910190F081E02DC6011995892BDB
:1002E00011F02196EECF7E01C701DF91CF911F91D2
:1002F0000F91FF90EF90DF90CF900895FC01448123
:1003000055816081718185E293E0CECF089580E0D0
:1003100090E00895FC01538D448D252F30E0842F0B
:1003200090E0821B930B541710F0CF96089501971D
:100330000895FC01918D828D981761F0828DDF0107
:10034000A80FB11D5D968C91928D9F5F9F73928FC8
:1003500090E008958FEF9FEF0895FC01918D828DBD
:10036000981731F0828DE80FF11D858D90E008958A
:100370008FEF9FEF0895FC01918D228D892F90E0E2
:10038000805C9F4F821B91098F739927089585E2A6
:1003900093E0F1DF21E0892B09F420E0822F08951A
:1003A00082EC93E0E8DF21E0892B09F420E0822F42
:1003B0000895FC01848DDF01A80FB11DA35ABF4F22
:1003C0002C91848D90E001968F739927848FA68954
:1003D000B7892C93A089B1898C91837080648C93A8
:1003E000938D848D981306C00288F389E02D808157
:1003F0008F7D80830895EF92FF920F931F93CF9389
:10040000DF93EC0181E0888F9B8D8C8D981305C064
:10041000E889F989808185FD25C0F62E0B8D10E0D5
:100420000F5F1F4F0F731127E02E8C8DE8120BC04A
:100430000FB607FCFACFE889F989808185FFF5CFEF
:10044000CE01B7DFF2CF8B8DFE01E80FF11DE35A2D
:10045000FF4FF0829FB7F8940B8FEA89FB89808168
:1004600080620AC09FB7F894EE89FF896083E889AB
:10047000F98980818370806480839FBF81E090E0F0
:10048000DF91CF911F910F91FF90EF900895CF933F
:10049000DF93EC01888D8823C1F0EA89FB89808194
:1004A00085FD05C0A889B9898C9186FD0EC00FB65F
:1004B00007FCF5CF808185FFF2CFA889B9898C919F
:1004C00085FFEDCFCE0175DFE8CFDF91CF910895A5
:1004D00080E090E0892B19F063DF811120C080E07B
:1004E00090E0892B19F053DF81111CC080E090E06F
:1004F000892B41F080E090E0892B21F00E940000E0
:10050000811113C080E090E0892BA1F080E090E0A1
:10051000892B81F00E94000081110AC008950E9479
:100520000000DDCF0E940000E1CF0E940000EACF72
:100530000C9400000895362F90E0FC01E450FE4F2B
:100540004491FC01EA54FE4F2491FC01E059FE4F16
:100550009491992309F46CC0442309F455C050E0E8
:10056000FA013197E231F10508F04EC08827EE58C4
:10057000FF4F8F4F0C944D0B809180008F7707C0F9
:10058000809180008F7D03C080918000877F809361
:1005900080003AC084B58F7702C084B58F7D84BD5A
:1005A00033C08091B0008F7703C08091B0008F7D01
:1005B0008093B00029C0809190008F7707C0809110
:1005C00090008F7D03C080919000877F8093900082
:1005D0001BC08091A0008F7707C08091A0008F7D05
:1005E00003C08091A000877F8093A0000DC0809100
:1005F00020018F7707C0809120018F7D03C08091FB
:100600002001877F80932001E92FF0E0EE0FFF1F8C
:10061000EA5AFE4FA591B4919FB7F894311104C0E6
:100620008C912095282302C0EC912E2B2C939FBFF8
:100630000895CF93DF9390E0FC01EA54FE4F24919C
:10064000FC01E059FE4F8491882361F190E0880F0E
:10065000991FFC01E45CFE4FC591D491FC01EA5A5C
:10066000FE4FA591B491611109C09FB7F89488819C
:10067000209582238883EC912E230BC0623061F495
:100680009FB7F8948881322F309583238883EC912B
:100690002E2B2C939FBF06C08FB7F894E8812E2B8A
:1006A00028838FBFDF91CF910895863308F086535A
:1006B00090917B00282F2870977F922B90937B003E
:1006C0008770806480937C0080917A00806480933E
:1006D0007A0080917A0086FDFCCF8091780020918D
:1006E000790090E0922B08953FB7F89480911D0314
:1006F00090911E03A0911F03B091200326B5A89BE3
:1007000005C02F3F19F00196A11DB11D3FBFBA2FA3
:10071000A92F982F8827820F911DA11DB11DBC0103
:10072000CD0142E0660F771F881F991F4A95D1F7C8
:1007300008958F929F92AF92BF92CF92DF92EF92E5
:10074000FF926B017C01D0DF4B015C01C114D1042D
:10075000E104F104E9F0C8DFDC01CB018819990953
:10076000AA09BB09883E9340A105B10578F321E0B1
:10077000C21AD108E108F10888EE880E83E0981EBD
:10078000A11CB11CC114D104E104F10421F7DECF96
:10079000FF90EF90DF90CF90BF90AF909F908F90A1
:1007A00008956115710549F0FB0101900020E9F7FA
:1007B0003197AF01461B570B77CD80E090E008954D
:1007C0000F931F93CF93DF93EC01EBDF8C0168E174
:1007D00072E0CE01E6DF800F911FDF91CF911F9174
:1007E0000F9108952F923F924F925F926F927F9256
:1007F0008F929F92AF92BF92CF92DF92EF92FF9231
:100800000F931F93CF93DF93CDB7DEB7A2970FB6A9
:10081000F894DEBF0FBECDBF6C014A015B01F22E22
:100820009A01AB01C501B40112D7882319F06BE11D
:1008300072E024C024013501E89477F82FEF3FEFF0
:100840004FE75FE7C301B20102D781110CC02FEF60
:100850003FEF4FE75FE7C301B201E3D418161CF482
:100860006FE172E00BC02FEF3FEF4FE75FE4C50190
:10087000B401E9D618162CF463E272E0C60191DFE8
:10088000A1C02FEF3FEF4FE75FECC501B401C9D422
:1008900087FDF2CF20E030E0A901C501B401C1D449
:1008A00087FF09C06DE2C601A6DD1C01B7FAB0944E
:1008B000B7F8B09402C0212C312C10E060E070E059
:1008C00080E09FE3F11639F020E030E040E251E4AF
:1008D00026D61F5FF7CFA5019401BDD54B015C0162
:1008E00086D6562E672E782EE92E19A2262F372F60
:1008F000482F592F8E010F5D1F4F0AA3412ECA01A9
:10090000B9012AE030E040E050E0A5D6605DF80192
:1009100062938F01211531054105510581F7BF0112
:10092000C6013FDF8101080F191FFF2009F449C0EC
:10093000652D762D872D9E2D78D49B01AC01C501A8
:10094000B40188D54B015C016EE2C60154DD080F8D
:10095000191F20E030E040E251E4C501B401C6D4E3
:100960004B015C0144D69B0140E050E019A22AA053
:10097000342C562E632E742EE52ECA01B9012AE0BE
:1009800030E040E050E067D6605DF10162931F0106
:10099000211531054105510581F7BF01C60101DF70
:1009A000080F191F652D762D872D9E2D3ED49B0196
:1009B000AC01C501B4014ED54B015C01FA94F110B4
:1009C000C8CFC801A2960FB6F894DEBF0FBECDBF48
:1009D000DF91CF911F910F91FF90EF90DF90CF901B
:1009E000BF90AF909F908F907F906F905F904F904F
:1009F0003F902F900895EF92FF921F93CF93DF9334
:100A0000182FEA01FB0184819581892B69F1E0802F
:100A1000F18065E173E0C7010E94630D892B91F4B9
:100A200061E0812F88DD64E670E080E090E081DEA7
:100A300067E272E085E293E0B4DECE015FDC63EC56
:100A400072E023C06CE272E0C7010E94630D892B43
:100A500059F460E0812F6FDD64E670E080E090E0A3
:100A600068DE67E272E00AC060E0812F64DD64E660
:100A700070E080E090E05DDE60E372E085E293E0AC
:100A800090DECE013BDC62ED72E085E293E089DE30
:100A900068E372E085E293E0DF91CF911F91FF90D0
:100AA000EF908ECE0E94560DFC018081918195C6FB
:100AB000EF92FF920F931F93CF93DF93EC01198274
:100AC00018821B821A821D821C8261157105A1F198
:100AD0007B01FB0101900020E9F731978F01061B94
:100AE000170BB8016F5F7F4F80E090E0FFD6009753
:100AF00059F0998388831B830A832C813D81232BA2
:100B000079F4FC0110820CC088819981009709F06A
:100B100064D6198218821D821C821B821A820CC024
:100B20001D830C83B70188819981DF91CF911F913B
:100B30000F91FF90EF90D0C7DF91CF911F910F9150
:100B4000FF90EF9008951F920F920FB60F9211240D
:100B50000BB60F922F933F934F935F936F937F93B7
:100B60008F939F93AF93BF93EF93FF9385E293E0AF
:100B700020DCFF91EF91BF91AF919F918F917F9179
:100B80006F915F914F913F912F910F900BBE0F90FE
:100B90000FBE0F901F9018951F920F920FB60F92D5
:100BA00011240BB60F922F938F939F93EF93FF9384
:100BB000E0913503F09136038081E0913B03F091A1
:100BC0003C0382FD12C0908180913E038F5F8F7342
:100BD00020913F03821751F0E0913E03F0E0EB5D7E
:100BE000FC4F958F80933E0301C08081FF91EF9170
:100BF0009F918F912F910F900BBE0F900FBE0F9072
:100C00001F9018951F920F920FB60F9211240BB6DA
:100C10000F922F933F934F935F936F937F938F9395
:100C20009F93AF93BF93EF93FF9382EC93E0C1DB6D
:100C3000FF91EF91BF91AF919F918F917F916F91B4
:100C40005F914F913F912F910F900BBE0F900FBE70
:100C50000F901F9018951F920F920FB60F921124AC
:100C60000BB60F922F938F939F93EF93FF93E09187
:100C7000D203F091D3038081E091D803F091D9039E
:100C800082FD12C090818091DB038F5F8F73209172
:100C9000DC03821751F0E091DB03F0E0EE53FC4FF0
:100CA000958F8093DB0301C08081FF91EF919F912D
:100CB0008F912F910F900BBE0F900FBE0F901F9032
:100CC00018951F920F920FB60F9211242F933F93F6
:100CD0008F939F93AF93BF938091190390911A03C1
:100CE000A0911B03B0911C033091180323E0230F44
:100CF0002D3720F40196A11DB11D05C026E8230F54
:100D00000296A11DB11D209318038093190390939F
:100D10001A03A0931B03B0931C0380911D039091B1
:100D20001E03A0911F03B09120030196A11DB11DC8
:100D300080931D0390931E03A0931F03B093200381
:100D4000BF91AF919F918F913F912F910F900FBEC7
:100D50000F901F901895E5E2F3E01382128248EE9F
:100D600053E060E070E044835583668377838AE0D4
:100D700092E0918380832DEC30E0358724872CEC42
:100D800030E03787268728EC30E0318B208B29EC48
:100D900030E0338B228B2AEC30E0358B248B2EEC29
:100DA00030E0378B268B118E128E138E148EE2EC70
:100DB000F3E01382128244835583668377839183A1
:100DC000808385EC90E09587848784EC90E097871A
:100DD000868780EC90E0918B808B81EC90E0938B08
:100DE000828B82EC90E0958B848B86EC90E0978BE5
:100DF000868B118E128E138E148E6FE372E085E651
:100E000094E056DE61E672E08FE594E051CECF9338
:100E1000DF93CDB7DEB72C970FB6F894DEBF0FBEC9
:100E2000CDBF789484B5826084BD84B5816084BD73
:100E300085B5826085BD85B5816085BD80916E0078
:100E4000816080936E0010928100809181008260A9
:100E500080938100809181008160809381008091E6
:100E600080008160809380008091B10084608093D5
:100E7000B1008091B00081608093B00080919100BA
:100E800082608093910080919100816080939100B5
:100E9000809190008160809390008091A100826099
:100EA0008093A1008091A10081608093A100809136
:100EB000A00081608093A0008091210182608093D6
:100EC0002101809121018160809321018091200185
:100ED00081608093200180917A00846080937A0001
:100EE00080917A00826080937A0080917A0081609C
:100EF00080937A0080917A00806880937A001092C3
:100F0000C100E0913503F091360382E08083E091E7
:100F10003103F09132031082E0913303F0913403F6
:100F20008FEC808310923D03E0913903F0913A03F6
:100F300086E08083E0913703F091380380818061FF
:100F40008083E0913703F09138038081886080834B
:100F5000E0913703F0913803808180688083E091CD
:100F60003703F091380380818F7D808360E087E3D1
:100F700060DB60E088E35DDB61E08BE05ADB61E031
:100F80008CE057DB64EF71E080E090E0D2DB95E02D
:100F9000A92E85E293E0CDD9FC01E156F109EA31B1
:100FA000F10508F036C18827EC57FF4F8F4F75C306
:100FB0000AE010E0C12CD12C760187E376DB9C019E
:100FC000A29EC001A39E900D1124BC01990F880B15
:100FD000990B2DD120E030EC4FE754E4A0D2609380
:100FE00021037093220380932303909324039B0196
:100FF000AC0131D220E030E04AE754E477D19B01E4
:10100000AC01C701B60127D26B017C0162E370E03D
:1010100080E090E08EDB0150110979F620E030E0AD
:1010200040E251E4C701B6017AD2AB01BC0120E035
:1010300085E293E0D7DBE8C082E3C82ED12CE12C17
:10104000F12C00E010E088E330DB9C01A29EC0019F
:10105000A39E900D1124BC01990F880B990BE7D02A
:1010600020E030EC4FE754E45AD2762E872E982EAB
:10107000B92E862F982DA92DBB2D809321039093F7
:101080002203A0932303B09324039701A801672DA3
:10109000782D892D9B2DD7D2181624F4E72CF82C07
:1010A000092D1B2D31E0C31AD10869F622E0A701F2
:1010B000B80182EC93E096DB68E372E082EC93E0A7
:1010C000A7C06CEA72E0CE010196F2DC65E173E044
:1010D00007C06CEA72E0CE010196EADC6CE272E0D5
:1010E000CE010796E5DCAE014F5F5F4FBE01695F41
:1010F0007F4F8BE090E033C066EB72E0CE0101964B
:10110000D7DC65E173E020C06CEA72E0CE010196A5
:10111000CFDC6CE272E0CE010796CADCAE014F5F15
:101120005F4FBE01695F7F4F8BE090E064DCCE01D2
:101130000796BADCCE010196B7DC66EB72E0CE0111
:101140000196B6DC6CE272E0CE010796B1DCAE012E
:101150004F5F5F4FBE01695F7F4F8CE090E04BDCDB
:10116000CE010796A1DCCE0101969EDC52C068E15B
:1011700072E085E293E015DB85E694E0BFD868E194
:1011800072E085E293E00DDB8FE594E0B7D868E18B
:1011900072E085E293E005DB37C065E772E085E247
:1011A00093E00EDB6DE872E085E293E009DB64EA30
:1011B00072E085E293E004DB6EEA72E085E293E0A0
:1011C000FFDA68EB72E085E293E0FADA67EC72E04E
:1011D00085E293E0F5DA67ED72E085E293E0F0DA1C
:1011E00066EE72E085E293E0EBDA66EF72E085E2AC
:1011F00093E0E6DA6BE073E085E293E0E1DA65E73D
:1012000072E085E293E0DCDA68E372E085E293E085
:10121000D7DA5ED9BECE8FE594E046DC85E694E071
:1012200043CC40D008F481E00895E89409C097FBCE
:101230003EF490958095709561957F4F8F4F9F4FAD
:101240009923A9F0F92F96E9BB279395F6958795F1
:1012500077956795B795F111F8CFFAF4BB0F11F4B4
:1012600060FF1BC06F5F7F4F8F4F9F4F16C088235B
:1012700011F096E911C0772321F09EE8872F762F91
:1012800005C0662371F096E8862F70E060E02AF0D2
:101290009A95660F771F881FDAF7880F96958795BE
:1012A00097F90895990F0008550FAA0BE0E8FEEF93
:1012B00016161706E807F907C0F012161306E4071A
:1012C000F50798F0621B730B840B950B39F40A2613
:1012D00061F0232B242B252B21F408950A2609F4F1
:1012E000A140A6958FEF811D811D08950BD078C078
:1012F00069D028F06ED018F0952309F05AC05FC06D
:101300001124A2C07ED0A0F3959FD1F3950F50E099
:10131000551F629FF001729FBB27F00DB11D639FA7
:10132000AA27F00DB11DAA1F649F6627B00DA11D4D
:10133000661F829F2227B00DA11D621F739FB00DF3
:10134000A11D621F839FA00D611D221F749F332763
:10135000A00D611D231F849F600D211D822F762FFC
:101360006A2F11249F5750408AF0E1F088234AF0F9
:10137000EE0FFF1FBB1F661F771F881F9150504045
:10138000A9F79E3F510570F014C05EC05F3FECF3BB
:10139000983EDCF3869577956795B795F795E79531
:1013A0009F5FC1F7FE2B880F911D9695879597F942
:1013B000089597F99F6780E870E060E008959FEFD7
:1013C00080EC089500240A941616170618060906DC
:1013D000089500240A9412161306140605060895AB
:1013E000092E0394000C11F4882352F0BB0F40F433
:1013F000BF2B11F460FF04C06F5F7F4F8F4F9F4F73
:10140000089557FD9058440F551F59F05F3F71F0F4
:101410004795880F97FB991F61F09F3F79F087955B
:101420000895121613061406551FF2CF4695F1DFE4
:1014300008C0161617061806991FF1CF8695710574
:10144000610508940895E894BB2766277727CB01A8
:1014500097F908955058BB27AA270ED0C1CFB2DF05
:1014600030F0B7DF20F031F49F3F11F41EF4A7CF26
:101470000EF4E095E7FB9DCFE92FC3DF80F3BA17A9
:10148000620773078407950718F071F49EF5DBCFA8
:101490000EF4E0950B2EBA2FA02D0B01B90190018F
:1014A0000C01CA01A0011124FF27591B99F0593FD3
:1014B00050F4503E68F11A16F040A22F232F342F1B
:1014C0004427585FF3CF469537952795A795F04069
:1014D0005395C9F77EF41F16BA0B620B730B840B7E
:1014E000BAF09150A1F0FF0FBB1F661F771F881F36
:1014F000C2F70EC0BA0F621F731F841F48F487958E
:1015000077956795B795F7959E3F08F0B3CF93957C
:10151000880F08F09927EE0F9795879508950CD0BE
:101520005FCF57DF40F04EDF30F021F45F3F19F01E
:1015300040CF511189CF43CF64DF98F39923C9F38A
:101540005523B1F3951B550BBB27AA2762177307C9
:10155000840738F09F5F5F4F220F331F441FAA1F7D
:10156000A9F333D00E2E3AF0E0E830D0915050403D
:10157000E695001CCAF729D0FE2F27D0660F771FEB
:10158000881FBB1F261737074807AB07B0E809F0CD
:10159000BB0B802DBF01FF2793585F4F2AF09E3F62
:1015A000510568F006CF50CF5F3FECF3983EDCF377
:1015B000869577956795B795F7959F5FC9F7880FDB
:1015C000911D9695879597F90895E1E0660F771F2D
:1015D000881FBB1F621773078407BA0720F0621BBE
:1015E000730B840BBA0BEE1F88F7E095089511DF9B
:1015F00088F09F5790F0B92F9927B751A0F0D1F0FC
:10160000660F771F881F991F1AF0BA95C9F712C085
:10161000B13081F018DFB1E0089515CF672F782F32
:101620008827B85F39F0B93FCCF3869577956795F1
:10163000B395D9F73EF490958095709561957F4F5D
:101640008F4F9F4F08952EDE08F48FEF08952ADE06
:10165000880B990B0895A1E21A2EAA1BBB1BFD0152
:101660000DC0AA1FBB1FEE1FFF1FA217B307E40781
:10167000F50720F0A21BB30BE40BF50B661F771FD9
:10168000881F991F1A9469F76095709580959095B9
:101690009B01AC01BD01CF010895EE0FFF1F881F14
:1016A0008BBF0790F691E02D19940F931F93CF9362
:1016B000DF938230910510F482E090E0E0916D04B8
:1016C000F0916E0420E030E0A0E0B0E0309719F136
:1016D000408151810281138148175907C8F084174E
:1016E000950769F4109731F012960C9312971396A0
:1016F0001C9327C000936D0410936E0422C0211523
:10170000310519F04217530718F49A01BD01EF0192
:10171000DF01F801DBCF21153105F9F0281B390B6A
:101720002430310580F48A819B816115710521F097
:10173000FB019383828304C090936E0480936D04B5
:10174000FE01329644C0FE01E20FF31F8193919394
:1017500022503109398328833AC020916B0430919B
:101760006C04232B41F42091020230910302309348
:101770006C0420936B04209100023091010221152A
:10178000310541F42DB73EB7409104025091050256
:10179000241B350BE0916B04F0916C04E217F30706
:1017A000A0F42E1B3F0B2817390778F0AC014E5FD1
:1017B0005F4F2417350748F04E0F5F1F50936C049E
:1017C00040936B048193919302C0E0E0F0E0CF017D
:1017D000DF91CF911F910F910895CF93DF930097E1
:1017E00009F481C0FC01329713821282A0916D042A
:1017F000B0916E04109781F420813181820F931F84
:1018000020916B0430916C042817390751F5F0933F
:101810006C04E0936B0467C0ED0120E030E0CE176C
:10182000DF0740F44A815B819E0141155105F1F0CB
:10183000EA01F5CFD383C28340815181840F951F84
:10184000C817D90759F488819981840F951F02968A
:10185000918380838A819B819383828321153105C3
:1018600029F4F0936E04E0936D043DC0E901FB831D
:10187000EA8349915991C40FD51FEC17FD0761F414
:1018800080819181840F951F0296E9019983888355
:10189000828193819B838A83E0E0F0E012968D91B0
:1018A0009C911397009719F0FD01DC01F7CF8D9102
:1018B0009C9111979D012E5F3F4F820F931F2091A6
:1018C0006B0430916C042817390769F4309729F4B8
:1018D00010926E0410926D0402C013821282B093B3
:1018E0006C04A0936B04DF91CF9108956F927F9267
:1018F0008F929F92AF92BF92CF92DF92EF92FF9220
:101900000F931F93CF93DF93009781F4CB01DF9167
:10191000CF911F910F91FF90EF90DF90CF90BF90EC
:10192000AF909F908F907F906F90BFCEFC01E60F9D
:10193000F71F9C0122503109E217F30708F4A5C0F4
:10194000EC01D9010D911C91119706171707A8F00A
:101950000530110508F497C0C8010497861797074A
:1019600008F491C002501109061B170B0193119343
:101970006D937C93CF0131DF86C05B01A01AB10A61
:101980004C01800E911EA0916D04B0916E04612CEB
:10199000712CE12CF12C109709F446C08D919C918B
:1019A0001197A815B905B1F56C0142E0C40ED11C20
:1019B000CA14DB0478F14C018A189B08640142E0E8
:1019C000C40ED11C1296BC9012971396AC91B5E040
:1019D000CB16D10440F0B282A38391828082D901D8
:1019E0006D937C9309C00E5F1F4F800F911FF9010B
:1019F00091838083EB2DFA2FE114F10431F0D701AC
:101A00001396FC93EE9312973EC0F0936E04E0930E
:101A10006D0439C06816790608F43C017D01129600
:101A20000D90BC91A02DB7CF80916B0490916C0468
:101A300088169906E1F466167706C8F480910002CC
:101A400090910102009741F48DB79EB74091040236
:101A500050910502841B950BE817F907B0F4F09339
:101A60006C04E0936B04F901718360830CC0CB01BB
:101A70001CDE7C01009749F0A801BE011BD0CE01FD
:101A8000ACDEC70104C0CE0102C080E090E0DF916F
:101A9000CF911F910F91FF90EF90DF90CF90BF906B
:101AA000AF909F908F907F906F90089581E090E02D
:101AB000F89419C0FB01DC0102C001900D92415065
:101AC0005040D8F70895FB01DC018D9101908019F9
:101AD0000110D9F3990B0895FB01DC0101900D92DF
:101AE0000020E1F7089511E0C2E2D1E000E005C076
:101AF000802FFE01D2DD2196011DC332D10780E087
:081B00000807B1F7F894FFCFCC
:101B080000006F04800000000000FB0154018A01FE
:101B18004702BB019901AD010D0A006E616E0069B3
:101B28006E66006F76660052656C65006F666600CB
:101B38004469676974616C002A454F4C2A2A005031
:101B4800726F62652056322041726475696E6F202B
:101B58004D6963726F20436F6E74726F6C6C65723F
:101B6800004D4C2031332F30372F32303230203176
:101B7800323A353500232323232323232323232306
:101B88002323232323232323232323230023232043
:101B980053657269616C20436F6D6D616E64733A51
:101BA8002023230071202D3E20494E41310077200B
:101BB8002D3E20494E41320061202D3E2052656C59
:101BC800652031204F4E0073202D3E2052656C65F4
:101BD8002031204F46460064202D3E2052656C651A
:101BE8002032204F4E0066202D3E2052656C652025
:101BF80032204F4646007A202D3E20526573657488
:101C080020416C6C2052656C65730076202D3E2057
:081C180076657273696F6E00BE
:020000023000CC
:10E000000D9489F10D94B2F10D94B2F10D94B2F129
:10E010000D94B2F10D94B2F10D94B2F10D94B2F1F0
:10E020000D94B2F10D94B2F10D94B2F10D94B2F1E0
:10E030000D94B2F10D94B2F10D94B2F10D94B2F1D0
:10E040000D94B2F10D94B2F10D94B2F10D94B2F1C0
:10E050000D94B2F10D94B2F10D94B2F10D94B2F1B0
:10E060000D94B2F10D94B2F10D94B2F10D94B2F1A0
:10E070000D94B2F10D94B2F10D94B2F10D94B2F190
:10E080000D94B2F10D94B2F10D94B2F10D94B2F180
:10E090000D94B2F10D94B2F10D94B2F10D94B2F170
:10E0A0000D94B2F10D94B2F10D94B2F10D94B2F160
:10E0B0000D94B2F10D94B2F10D94B2F10D94B2F150
:10E0C0000D94B2F10D94B2F10D94B2F10D94B2F140
:10E0D0000D94B2F10D94B2F10D94B2F10D94B2F130
:10E0E0000D94B2F141546D656761323536300041AF
:10E0F000726475696E6F206578706C6F72657220DE
:10E1000073746B3530305632206279204D4C530099
:10E11000426F6F746C6F616465723E004875683F52
:10E1200000436F6D70696C6564206F6E203D200048
:10E130004350552054797065202020203D20005FF9
:10E140005F4156525F415243485F5F3D2000415658
:10E1500052204C696243205665723D20004743437C
:10E160002056657273696F6E203D20004350552024
:10E1700049442020202020203D20004C6F7720663D
:10E18000757365202020203D20004869676820665F
:10E190007573652020203D200045787420667573D6
:10E1A00065202020203D20004C6F636B2066757336
:10E1B000652020203D20004D617220203720323024
:10E1C000313300312E362E3800342E332E350056A2
:10E1D00023202020414444522020206F7020636F70
:10E1E00064652020202020696E73747275637469E1
:10E1F0006F6E2061646472202020496E74657272B3
:10E20000757074006E6F20766563746F7200726A49
:10E210006D702020006A6D70200057686174207056
:10E220006F72743A00506F7274206E6F7420737541
:10E2300070706F72746564004D7573742062652030
:10E2400061206C6574746572002000577269747483
:10E25000696E672045450052656164696E672045B7
:10E26000450045452065727220636E743D00504F35
:10E27000525400303D5A65726F2061646472003FF1
:10E280003D43505520737461747300403D454550C3
:10E29000524F4D207465737400423D426C696E6B41
:10E2A000204C454400453D44756D70204545505215
:10E2B0004F4D00463D44756D7020464C415348001B
:10E2C000483D48656C70004C3D4C69737420492F83
:10E2D0004F20506F72747300513D51756974005234
:10E2E0003D44756D702052414D00563D73686F7707
:10E2F00020696E7465727275707420566563746FF0
:10E30000727300593D506F727420626C696E6B00BD
:10E310002A0011241FBECFEFD1E2DEBFCDBF01E046
:10E320000CBF12E0A0E0B2E0EEE1FDEF03E00BBFB6
:10E3300002C007900D92A030B107D9F712E0A0E01B
:10E34000B2E001C01D92AE30B107E1F70F9460F367
:10E350000D948DFE01E20EBF0FEF0DBF11241FBE05
:10E360000D9460F30D9400F020E030E040ED57E0B4
:10E3700005C0FA013197F1F72F5F3F4F2817390792
:10E38000C0F308959C01260F311DC901A0E0B0E043
:10E390002F5F3F4FABBFFC018791882361F08093D3
:10E3A000C6008091C00086FFFCCF8091C0008064D1
:10E3B0008093C000EACF08958DE08093C6008091DD
:10E3C000C00086FFFCCF8091C00080648093C000B5
:10E3D0008AE08093C6008091C00086FFFCCF8091C8
:10E3E000C00080648093C00008950F94C2F10F9420
:10E3F000DCF10895FC019081992359F09093C600B7
:10E400008091C00086FFFCCF8091C0008064809323
:10E41000C0003196992379F70895282F982F929567
:10E420009F70892F805D8A3308F0895F8093C600D2
:10E430008091C00086FFFCCF8091C00080648093F3
:10E44000C000822F8F70982F905D9A3308F0995FEB
:10E450009093C6008091C00086FFFCCF8091C000E1
:10E4600080648093C00008959C01FB01853691056E
:10E470001CF46330710594F0C90164E670E00F94F8
:10E480002EFE605D7F4F6093C6008091C00086FFC6
:10E49000FCCF8091C00080648093C0002B30310598
:10E4A00014F43297B4F0C90164E670E00F942EFEC4
:10E4B0006AE070E00F942EFE605D7F4F6093C600AF
:10E4C0008091C00086FFFCCF8091C0008064809363
:10E4D000C000C9016AE070E00F942EFEC0968093E0
:10E4E000C6008091C00086FFFCCF8091C000806490
:10E4F0008093C00008951F93182F8EE692EE60E07F
:10E500000F94C2F11093C6008091C00086FFFCCF2B
:10E510008091C00080648093C0000F94DCF11F9153
:10E5200008952F923F924F925F926F927F928F92B7
:10E530009F92AF92BF92CF92DF92EF92FF920F9392
:10E540001F93DF93CF93CDB7DEB762970FB6F894E2
:10E55000DEBF0FBECDBF382E622ECA01DB015C01CB
:10E560006D01772420E2222E2E010894411C511CBB
:10E570008BC081E0A81680E0B80681E0C80680E084
:10E58000D80628F0C601AA27BB270F940DF2BB2797
:10E59000AD2D9C2D8B2D0F940DF28A2D0F940DF225
:10E5A0002092C6008091C00086FFFCCF8091C00001
:10E5B00080648093C0009DE29093C6008091C0006B
:10E5C00086FFFCCF8091C00080648093C0002092C1
:10E5D000C6008091C00086FFFCCF8091C00080649F
:10E5E0008093C00019828601750188249924A1E0D6
:10E5F0003A1651F03A1620F0B2E03B1661F409C029
:10E600000BBFF701779007C0C7010F9477FE782EF4
:10E6100002C0F7017080872D0F940DF22092C60082
:10E620008091C00086FFFCCF8091C0008064809301
:10E63000C000872D8052F401EF70F0708F3520F408
:10E64000E40DF51D708204C0E40DF51D8EE280839B
:10E650000894E11CF11C011D111D0894811C911CE2
:10E6600090E18916910409F0C2CF80E190E0A0E02A
:10E67000B0E0A80EB91ECA1EDB1E198AC2010F9493
:10E68000FAF10F94DCF16A94662009F072CF629679
:10E690000FB6F894DEBF0FBECDBFCF91DF911F91B3
:10E6A0000F91FF90EF90DF90CF90BF90AF909F9031
:10E6B0008F907F906F905F904F903F902F90089534
:10E6C0002F923F924F925F926F927F928F929F9282
:10E6D000AF92BF92CF92DF92EF92FF920F931F9370
:10E6E000DF93CF93CDB7DEB7CD53D1400FB6F894BB
:10E6F000DEBF0FBECDBF01E20EBF0FEF0DBF94B75F
:10E70000F894A89514BE80916000886180936000A1
:10E7100010926000789493FF05C0E0910002F091A0
:10E7200001021995279A2F9A8091C00082608093E8
:10E73000C00080E18093C40088E18093C1000000A4
:10E74000EE24FF24870144E0A42EB12CCC24DD2448
:10E7500024C0C5010197F1F70894E11CF11C011DCB
:10E76000111D21E2E2162EE4F20620E0020720E06D
:10E77000120718F031E0C32ED12CC801B70127ECE5
:10E780003BE140E050E00F9441FE611571058105C9
:10E79000910519F485B1805885B98091C00087FD35
:10E7A00003C0C114D104A9F2A6014F5F5F4FC25E3E
:10E7B000DE4F59834883CE51D140C25EDE4F8881FF
:10E7C0009981CE51D140019711F00D9410FEC05D9A
:10E7D000DE4F19821882C053D14060E0C15DDE4F28
:10E7E0001882CF52D14088249924C35DDE4F19820C
:10E7F0001882CD52D140C05EDE4F188219821A8233
:10E800001B82C052D140CE5CDE4F188219821A8220
:10E810001B82C253D140EE24FF2487010BBFF701B6
:10E8200007911691C45CDE4F19830883CC53D14005
:10E830000D940BFEC25EDE4F28813981CE51D1404E
:10E840002130310509F52091C600C25EDE4F1982E4
:10E850001882CE51D14022C02F5F3F4F4F4F5F4FA4
:10E86000213082E138078AE7480780E0580780F0C6
:10E87000C45CDE4FE881F981CC53D140EF5FFF4F9C
:10E8800019F0EE27FF27099420E030E040E050E047
:10E890008091C00087FFE0CF2091C600C35DDE4FAE
:10E8A00048815981CD52D1404F5F5F4FC35DDE4FEC
:10E8B00059834883CD52D140213209F063C64A3092
:10E8C000510508F05FC60894811C911C53E0851621
:10E8D000910409F059C600E010E018C081E280936D
:10E8E000C6008091C00086FFFCCF8091C00080648C
:10E8F0008093C0002F5F3F4F2931310579F70F9486
:10E90000DCF10F5F1F4F0530110519F020E030E0FA
:10E91000E5CF10920A0210920B0210920C02109294
:10E920000D02109206021092070210920802109235
:10E930000902109202021092030210920402109235
:10E9400005028FEE90EE60E00F94F5F180E191EE1C
:10E9500060E00F94C2F18091C00087FFFCCF9091DE
:10E96000C600903608F09F759032B8F09093C600BC
:10E970008091C00086FFFCCF8091C00080648093AE
:10E98000C000A0E2A093C6008091C00086FFFCCF2B
:10E990008091C00080648093C000983409F4D7C18E
:10E9A0009934B8F4923409F459C1933458F490333B
:10E9B00019F1903308F4E3C59F33A1F1903409F0C5
:10E9C000DEC5BDC0953409F470C1963409F0D7C5D1
:10E9D00098C1923509F42BC2933538F49C3409F46C
:10E9E000F5C1913509F0CBC518C2963509F445C279
:10E9F000993509F0C4C567C483E792EE62E00F94CD
:10EA0000F5F110920602109207021092080210927D
:10EA1000090210920A0210920B0210920C0210923C
:10EA20000D0213C18FE792EE62E00F94F5F18FEEC5
:10EA300090EE60E00F94F5F181E291EE60E00F94CA
:10EA4000C2F187EB91EE60E00F94F5F180E391EE77
:10EA500060E00F94C2F184EE90EE60E00F94F5F167
:10EA60008FE391EE60E00F94C2F186E090E061E008
:10EA700070E00F9434F20F94DCF18DE591EE60E0DC
:10EA80000F94C2F189EC91EE60E00F94F5F18EE401
:10EA900091EE60E00F94C2F183EC91EE60E00F9490
:10EAA000F5F18CE691EE60E00F94C2F18EE10F94E7
:10EAB0000DF288E90F940DF281E00F940DF20F949E
:10EAC000DCF18BE791EE60E00F94C2F119E0E0E039
:10EAD000F0E010935700E4918E2F0F940DF20F94F5
:10EAE000DCF18AE891EE60E00F94C2F1E3E0F0E03F
:10EAF00010935700E4918E2F0F940DF20F94DCF1D8
:10EB000089E991EE60E00F94C2F1E2E0F0E0109349
:10EB10005700E4918E2F0F940DF20F94DCF188EAE8
:10EB200091EE60E00F94C2F1E1E0F0E01093570045
:10EB30001491812F0F940DF20F94DCF107CF8BE825
:10EB400092EE62E00F94F5F18BE492EE60E00F94A8
:10EB5000F5F10F94DCF100E010E019C0C8016F2D51
:10EB60000F947FFEFF2031F489E492EE60E00F9471
:10EB7000C2F10BC0F092C6008091C00086FFFCCFAE
:10EB80008091C00080648093C0000F5F1F4FC80158
:10EB900081519F41A0E0B0E0ABBFFC01F790BAE229
:10EBA000FB1621F0E2E000301E07C1F60F94DCF105
:10EBB0000F94DCF187E592EE60E00F94F5F10F948D
:10EBC000DCF1CC24DD2400E010E01EC0C8010F946D
:10EBD00077FEF82E882331F489E492EE60E00F94FA
:10EBE000C2F10BC08093C6008091C00086FFFCCFAD
:10EBF0008091C00080648093C000FE1419F00894D6
:10EC0000C11CD11C0F5F1F4FC80181519F41A0E063
:10EC1000B0E0ABBFFC01E790FAE2EF1621F022E092
:10EC20000030120799F60F94DCF10F94DCF182E6C4
:10EC300092EE60E00F94C2F1C60161E070E00F94C3
:10EC400034F20F94DCF10F94DCF110920202109276
:10EC50000302109204021092050278CE89E992EE26
:10EC600062E00F94F5F1279A2F9A16C02F9880E052
:10EC700090E0E0EDF7E03197F1F7019684369105E9
:10EC8000C1F72F9A80E090E0E0EDF7E03197F1F7DF
:10EC9000019684369105C1F78091C00087FFE6CFC9
:10ECA0008091C00087FFFCCF64C485EA92EE62E0E9
:10ECB0000F94F5F140910202509103026091040219
:10ECC0007091050281E020E10F9491F2809102029F
:10ECD00090910302A0910402B091050280509F4FD1
:10ECE000AF4FBF4F8093020290930302A0930402A0
:10ECF000B093050280509041A040B04008F426CE69
:10ED0000A4CF83EB92EE62E00F94F5F140910602FE
:10ED100050910702609108027091090280E020E1A1
:10ED20000F9491F28091060290910702A09108023F
:10ED3000B091090280509F4FAF4FBF4F80930602A2
:10ED400090930702A0930802B0930902FFCD80ECD4
:10ED500092EE62E00F94F5F183E792EE60E00F949B
:10ED6000F5F18FE792EE60E00F94F5F18BE892EE0B
:10ED700060E00F94F5F189E992EE60E00F94F5F10F
:10ED800085EA92EE60E00F94F5F183EB92EE60E09D
:10ED90000F94F5F180EC92EE60E00F94F5F187ECC2
:10EDA00092EE60E00F94F5F188ED92EE60E00F9442
:10EDB000F5F18FED92EE60E00F94F5F18AEE92EEB0
:10EDC00060E00F94F5F183E093EEBDCD87EC92EE19
:10EDD00062E00F94F5F181E40F947BF282E40F94EA
:10EDE0007BF283E40F947BF284E40F947BF285E45E
:10EDF0000F947BF286E40F947BF287E40F947BF20E
:10EE000088E40F947BF28AE40F947BF28BE40F94F6
:10EE10007BF28CE40F947BF299CD88ED92EE62E068
:10EE20000F94F5F1772473948824992409C48FED05
:10EE300092EE62E00F94F5F140910A0250910B02BC
:10EE400060910C0270910D0282E020E10F9491F22A
:10EE500080910A0290910B02A0910C02B0910D02D8
:10EE600080509F4FAF4FBF4F80930A0290930B0289
:10EE7000A0930C02B0930D0269CD8AEE92EE62E08F
:10EE80000F94F5F184EE90EE60E00F94F5F18FECC5
:10EE900091EE60E00F94F5F1662477244301CC5D98
:10EEA000DE4F19821882C452D140D401C301B695F5
:10EEB000A79597958795CA5DDE4F88839983AA8326
:10EEC000BB83C652D140CC5DDE4FA881B981C4520C
:10EED000D1401196CC5DDE4FB983A883C452D14096
:10EEE000CD0162E070E00F9434F2B0E2B093C6005E
:10EEF0008091C00086FFFCCF8091C0008064809329
:10EF0000C000EDE2E093C6008091C00086FFFCCF18
:10EF10008091C00080648093C000F0E2F093C6004E
:10EF20008091C00086FFFCCF8091C00080648093F8
:10EF3000C000CA5DDE4FE880F9800A811B81C6529D
:10EF4000D140BB27A12F902F8F2D0F940DF2CA5DBA
:10EF5000DE4F8881C652D1400F940DF2B0E2FB2EF5
:10EF6000F092C6008091C00086FFFCCF8091C00067
:10EF700080648093C0000DE30093C6008091C000C0
:10EF800086FFFCCF8091C00080648093C00010E2B7
:10EF90001093C6008091C00086FFFCCF8091C00016
:10EFA00080648093C0008BBEF3012791C65DDE4F65
:10EFB0002883CA52D140A22EBB24CC24DD2408943D
:10EFC000611C711C811C911C8BBEF3018791282E42
:10EFD0003324442455240894611C711C811C911C09
:10EFE0008BBEF3013791C55DDE4F3883CB52D140E4
:10EFF0000894611C711C811C911C8BBEF30147910C
:10F00000C45DDE4F4883CC52D140ADEFEA2EAFEF66
:10F01000FA2EAFEF0A2FAFEF1A2F6E0C7F1C801E57
:10F02000911E142D032DF22CEE24EA0CFB1C0C1D5A
:10F030001D1D0F940DF220E22093C6008091C000A8
:10F0400086FFFCCF8091C00080648093C000C65DC5
:10F05000DE4F8881CA52D1400F940DF230E23093D6
:10F06000C6008091C00086FFFCCF8091C000806404
:10F070008093C000C45DDE4F8881CC52D1400F9494
:10F080000DF240E24093C6008091C00086FFFCCFA5
:10F090008091C00080648093C000C55DDE4F888190
:10F0A000CB52D1400F940DF250E25093C6008091A4
:10F0B000C00086FFFCCF8091C00080648093C000B8
:10F0C0008FEFE8168FEFF80680E0080780E018075A
:10F0D00031F484E092EE60E00F94C2F1DFC0D80119
:10F0E000C7018070907CA070B0708050904CA040A0
:10F0F000B040D1F52FEF3FE340E050E0E222F322B1
:10F1000004231523CA5DDE4FA880B980CA80DB8046
:10F11000C652D140AE0CBF1CC01ED11EAA0CBB1CD7
:10F12000CC1CDD1C8EE092EE60E00F94C2F1BB2798
:10F13000A12F902F8F2D0F940DF28E2D0F940DF285
:10F1400030E23093C6008091C00086FFFCCF8091F2
:10F15000C00080648093C0004EE34093C60080915D
:10F16000C00086FFFCCF87C08EE09EEFA0E0B0E03D
:10F17000E822F9220A231B239CE0E91694E9F90608
:10F1800090E0090790E0190709F088C0C45DDE4FE0
:10F19000A881CC52D140EA2EFF2400E010E0102FCD
:10F1A0000F2DFE2CEE24C55DDE4FB881CB52D14031
:10F1B000EB0EF11C011D111DD601C501817090706F
:10F1C000A070B070DC0199278827E80EF91E0A1F8D
:10F1D0001B1F20EF30E040E050E0A222B322C42207
:10F1E000D52241E1AA0CBB1CCC1CDD1C4A95D1F7F1
:10F1F000EA0CFB1C0C1D1D1D81E090E0A0E0B0E0BE
:10F20000282239224A225B2235E1220C331C441C7D
:10F21000551C3A95D1F7E20CF31C041D151D57013E
:10F220006801AA0CBB1CCC1CDD1C85E192EE60E0E1
:10F230000F94C2F1C801AA27BB270F940DF2BB2778
:10F24000A12F902F8F2D0F940DF28E2D0F940DF274
:10F2500090E29093C6008091C00086FFFCCF809121
:10F26000C00080648093C000AEE3A093C60080918C
:10F27000C00086FFFCCF8091C00080648093C000F6
:10F28000C601AA27BB270F940DF2BB27AD2D9C2DDD
:10F290008B2D0F940DF28A2D0F940DF20F94DCF14B
:10F2A000CC5DDE4FE881F981C452D140F99709F471
:10F2B0004DCBF4E0EF2EF12C012D112D6E0C7F1CA7
:10F2C000801E911EF2CD83E093EE62E00F94F5F183
:10F2D0008AE192EE60E00F94C2F18091C00087FF56
:10F2E000FCCF1091C6001F751093C6008091C0001E
:10F2F00086FFFCCF8091C00080648093C0000F9493
:10F30000DCF1812F81548A3108F036C1163409F4BA
:10F3100095C0173490F4133409F44EC0143430F40B
:10F320001134F1F0123409F01DC130C0143409F465
:10F3300059C0153409F016C16BC01A3409F4C4C0A1
:10F340001B3438F4173409F48FC0183409F00AC19B
:10F35000A1C01B3409F4D2C01C3409F003C1E8C0B9
:10F360008FEF81B90DC082B1809582B980E090E0C5
:10F37000E0EDF7E03197F1F70196883C9105C1F790
:10F380008091C00087FFEFCF12B8EFC08FEF84B934
:10F390000DC085B1809585B980E090E0E0EDF7E0A3
:10F3A0003197F1F70196883C9105C1F78091C00033
:10F3B00087FFEFCF15B8D9C08FEF87B90DC088B1DF
:10F3C000809588B980E090E0E0EDF7E03197F1F7C3
:10F3D0000196883C9105C1F78091C00087FFEFCF6F
:10F3E00018B8C3C08FEF8AB90DC08BB180958BB9A7
:10F3F00080E090E0E0EDF7E03197F1F70196883C8E
:10F400009105C1F78091C00087FFEFCF1BB8ADC059
:10F410008FEF8DB90DC08EB180958EB980E090E0F0
:10F42000E0EDF7E03197F1F70196883C9105C1F7DF
:10F430008091C00087FFEFCF1EB897C08FEF80BBD1
:10F440000DC081B3809581BB80E090E0E0EDF7E0F6
:10F450003197F1F70196883C9105C1F78091C00082
:10F4600087FFEFCF11BA81C08FEF83BB0DC084B38C
:10F47000809584BB80E090E0E0EDF7E03197F1F714
:10F480000196883C9105C1F78091C00087FFEFCFBE
:10F4900014BA6BC08FEF809301010FC080910201FD
:10F4A00080958093020180E090E0E0EDF7E03197F5
:10F4B000F1F70196883C9105C1F78091C00087FF64
:10F4C000EDCF1092020151C08FEF809304010FC065
:10F4D0008091050180958093050180E090E0E0ED4A
:10F4E000F7E03197F1F70196883C9105C1F78091DB
:10F4F000C00087FFEDCF1092050137C08FEF8093DA
:10F5000007010FC08091080180958093080180E079
:10F5100090E0E0EDF7E03197F1F70196883C910536
:10F52000C1F78091C00087FFEDCF109208011DC088
:10F530008FEF80930A010FC080910B01809580931B
:10F540000B0180E090E0E0EDF7E03197F1F70196F4
:10F55000883C9105C1F78091C00087FFEDCF1092E4
:10F560000B0103C085E292EEEEC98091C00087FFD7
:10F57000FCCF8091C600EAC988E392EEE4C98CE131
:10F5800091EEE1C988249924933011F1943028F444
:10F59000913089F09230B8F408C0953061F195301F
:10F5A000F0F0963009F048C043C02B3109F042C951
:10F5B00091E06BE13FC96227C15DDE4F2883CF52E6
:10F5C000D14092E037C9B22FA0E0622793E032C960
:10F5D000822F90E0A82BB92B622794E02BC92E3004
:10F5E00009F039C3622795E0C05DDE4F19821882A9
:10F5F000C053D1401FC9E1E0F0E0EC0FFD1FC05D3A
:10F60000DE4F08811981C053D140E00FF11F2083E4
:10F610000F5F1F4FC05DDE4F19830883C053D14079
:10F6200062270A171B0709F005C9D80196E002C92D
:10F63000261709F010C303C0973009F0FBC87724E0
:10F640009981933109F412C19431C8F4963009F4C8
:10F65000D8C0973050F4923009F406C1933009F4C1
:10F660006DC0913009F059C253C0913109F477C08F
:10F67000923108F0BBC0903109F04FC2F5C098310B
:10F6800009F487C0993150F4953109F4EFC09531F0
:10F6900008F4C6C1963109F040C2C2C19A3109F4DA
:10F6A0006CC09A3108F491C09B3109F45BC09D3164
:10F6B00009F033C29D81903359F48F81882311F46E
:10F6C0009EE11CC0813011F091E018C098E916C08D
:10F6D000892F807591F0903539F4E0E0F0E089E011
:10F6E0008093570094910AC0983539F4E3E0F0E034
:10F6F00089E080935700949101C090E01A821B82A8
:10F700008D818C831D829E831F8227E030E009C299
:10F710001A8288E08B8381E48C8386E58D8382E581
:10F720008E8389E48F8383E5888780E589878FE5E9
:10F730008A8782E38B872BE030E0F3C18A818139AD
:10F7400041F0823941F0803911F48FE005C080E04A
:10F7500003C082E001C08AE01A828B8344C0772410
:10F76000739482C08D81882311F48EE12CC0813086
:10F7700011F081E028C088E926C01A82E1E0F0E0BB
:10F7800089E08093570084918B831C8224E030E0D1
:10F79000C8C18B81803589F48C81883039F4E2E0EE
:10F7A000F0E089E08093570084910DC0E0E0F0E044
:10F7B00089E080935700849106C0E3E0F0E089E09F
:10F7C0008093570084911A82DFCF8D81836C99E0FA
:10F7D000E1E0F0E0082E90935700E89507B600FCB2
:10F7E000FDCF1A821B8223E030E09BC180EC8A832C
:10F7F000CE5CDE4F188219821A821B82C253D1401E
:10F800008EC18A8190E0A0E0B0E0582F44273327D2
:10F8100022278B8190E0A0E0B0E0DC0199278827C7
:10F82000282B392B4A2B5B2B8D8190E0A0E0B0E098
:10F83000282B392B4A2B5B2B8C8190E0A0E0B0E089
:10F84000BA2FA92F982F8827282B392B4A2B5B2BCF
:10F85000220F331F441F551FC05EDE4F288339839C
:10F860004A835B83C052D1401A8259C13A81C95C34
:10F87000DE4F3883C753D140CA5CDE4F1882C6536F
:10F88000D1408B81C82EDD24CA5CDE4F488159816E
:10F89000C653D140C42AD52A933109F082C0CE5C28
:10F8A000DE4F88819981AA81BB81C253D1408050AB
:10F8B000904CA340B04030F583E0CE5CDE4FE88052
:10F8C000F9800A811B81C253D140F70100935B008C
:10F8D00080935700E89507B600FCFDCFCE5CDE4F65
:10F8E000088119812A813B81C253D14000501F4FAA
:10F8F0002F4F3F4FCE5CDE4F088319832A833B8313
:10F90000C253D140C05EDE4F488159816A817B81FC
:10F91000C052D140DE011B9631E08C9111962C91A2
:10F9200011971296C75CDE4F2883C953D140C85C3B
:10F93000DE4F1882C853D14090E0C85CDE4FE881AA
:10F94000F981C853D1408E2B9F2B0C01FA01609393
:10F950005B0030935700E89511244E5F5F4F6F4F67
:10F960007F4F0EEFE02E0FEFF02ECE0CDF1CC114F8
:10F97000D10499F685E0C05EDE4F088119812A81A5
:10F980003B81C052D140F80120935B008093570027
:10F99000E89507B600FCFDCF81E180935700E8951C
:10F9A00035C0C05EDE4F88819981AA81BB81C0527B
:10F9B000D140B695A795979587957C018601ABE0D8
:10F9C000AA2EB12CAC0EBD1E0BC0D5016D915D01F0
:10F9D000C7010F947FFE0894E11CF11C01501040F8
:10F9E0000115110591F7A60160E070E0440F551F65
:10F9F000661F771FC05EDE4FE880F9800A811B8199
:10FA0000C052D1404E0D5F1D601F711F1A82C05E33
:10FA1000DE4F488359836A837B83C052D1407FC0C5
:10FA2000FA80C55CDE4FF882CB53D140C65CDE4F16
:10FA30001882CA53D1408B81C82EDD24C65CDE4FAC
:10FA400008811981CA53D140C02AD12A1A828981DA
:10FA5000BE016D5F7F4F843121F59601C05EDE4FA0
:10FA6000E880F9800A811B81C052D1400BBFF701A9
:10FA700087919691DB018C9311969C936E5F7F4FDB
:10FA8000D801C7010296A11DB11DC05EDE4F88835B
:10FA90009983AA83BB83C052D14022503040F1F6F3
:10FAA00036C0C05EDE4F288139814A815B81C052F9
:10FAB000D1400894C108D108760100E010E0089414
:10FAC000C11CD11C0894E11CF11C011D111DE20E8A
:10FAD000F31E041F151F21BDBB27A52F942F832FB5
:10FAE00082BD2F5F3F4F4F4F5F4FF89A80B5DB01CC
:10FAF0008D93BD012E153F054007510761F7C05E8C
:10FB0000DE4F288339834A835B83C052D1409601FC
:10FB10002D5F3F4FFB01108204C080EC8A8322E0FE
:10FB200030E08BE18093C6008091C00086FFFCCF5F
:10FB30008091C00080648093C000C15DDE4FF88179
:10FB4000CF52D140F093C6008091C00086FFFCCF19
:10FB50008091C00080648093C000432F3093C60022
:10FB60008091C00086FFFCCF8091C00080648093AC
:10FB7000C000922F2093C6008091C00086FFFCCF6A
:10FB80008091C00080648093C0008EE08093C600A6
:10FB90008091C00086FFFCCF8091C000806480937C
:10FBA000C00065E1C15DDE4FE880CF52D1406E25D7
:10FBB00069276427FE01319610C090819093C6009A
:10FBC0008091C00086FFFCCF31968091C000806498
:10FBD0008093C0006927215030402115310569F715
:10FBE0006093C6008091C00086FFFCCF8091C0006A
:10FBF00080648093C00085B1805885B9772081F4F6
:10FC0000C15DDE4F0881CF52D1400F5FC15DDE4F35
:10FC10000883CF52D14090E0A0E0B0E00D941AF4F8
:10FC200027982F9880E090E020ED37E0F901319798
:10FC3000F1F7019684369105C9F700008091C00064
:10FC40008D7F8093C00081E180935700E895EE2777
:10FC5000FF270994FFCF90E00D941AF497FB092E2B
:10FC600007260AD077FD04D02ED006D000201AF443
:10FC7000709561957F4F0895F6F7909581959F4F08
:10FC80000895A1E21A2EAA1BBB1BFD010DC0AA1FDD
:10FC9000BB1FEE1FFF1FA217B307E407F50720F0F5
:10FCA000A21BB30BE40BF50B661F771F881F991F70
:10FCB0001A9469F760957095809590959B01AC01B9
:10FCC000BD01CF010895AA1BBB1B51E107C0AA1FAC
:10FCD000BB1FA617B70710F0A61BB70B881F991FED
:10FCE0005A95A9F780959095BC01CD010895F99991
:10FCF000FECF92BD81BDF89A992780B50895262F31
:10FD0000F999FECF1FBA92BD81BD20BD0FB6F89400
:0EFD1000FA9AF99A0FBE01960895F894FFCF63
:040000033000E000E9
:00000001FF